{
  "_format": "hh-sol-artifact-1",
  "contractName": "Wuschelkopf",
  "sourceName": "contracts/Wuschelkopf.sol",
  "abi": [
    {
      "inputs": [
        {
          "internalType": "string",
          "name": "baseURI",
          "type": "string"
        }
      ],
      "stateMutability": "nonpayable",
      "type": "constructor"
    },
    {
      "anonymous": false,
      "inputs": [
        {
          "indexed": true,
          "internalType": "address",
          "name": "owner",
          "type": "address"
        },
        {
          "indexed": true,
          "internalType": "address",
          "name": "approved",
          "type": "address"
        },
        {
          "indexed": true,
          "internalType": "uint256",
          "name": "tokenId",
          "type": "uint256"
        }
      ],
      "name": "Approval",
      "type": "event"
    },
    {
      "anonymous": false,
      "inputs": [
        {
          "indexed": true,
          "internalType": "address",
          "name": "owner",
          "type": "address"
        },
        {
          "indexed": true,
          "internalType": "address",
          "name": "operator",
          "type": "address"
        },
        {
          "indexed": false,
          "internalType": "bool",
          "name": "approved",
          "type": "bool"
        }
      ],
      "name": "ApprovalForAll",
      "type": "event"
    },
    {
      "anonymous": false,
      "inputs": [
        {
          "indexed": true,
          "internalType": "address",
          "name": "previousOwner",
          "type": "address"
        },
        {
          "indexed": true,
          "internalType": "address",
          "name": "newOwner",
          "type": "address"
        }
      ],
      "name": "OwnershipTransferred",
      "type": "event"
    },
    {
      "anonymous": false,
      "inputs": [
        {
          "indexed": true,
          "internalType": "address",
          "name": "from",
          "type": "address"
        },
        {
          "indexed": true,
          "internalType": "address",
          "name": "to",
          "type": "address"
        },
        {
          "indexed": true,
          "internalType": "uint256",
          "name": "tokenId",
          "type": "uint256"
        }
      ],
      "name": "Transfer",
      "type": "event"
    },
    {
      "inputs": [],
      "name": "MAX_PER_MINT",
      "outputs": [
        {
          "internalType": "uint256",
          "name": "",
          "type": "uint256"
        }
      ],
      "stateMutability": "view",
      "type": "function"
    },
    {
      "inputs": [],
      "name": "MAX_SUPPLY",
      "outputs": [
        {
          "internalType": "uint256",
          "name": "",
          "type": "uint256"
        }
      ],
      "stateMutability": "view",
      "type": "function"
    },
    {
      "inputs": [],
      "name": "PRICE",
      "outputs": [
        {
          "internalType": "uint256",
          "name": "",
          "type": "uint256"
        }
      ],
      "stateMutability": "view",
      "type": "function"
    },
    {
      "inputs": [
        {
          "internalType": "address",
          "name": "to",
          "type": "address"
        },
        {
          "internalType": "uint256",
          "name": "tokenId",
          "type": "uint256"
        }
      ],
      "name": "approve",
      "outputs": [],
      "stateMutability": "nonpayable",
      "type": "function"
    },
    {
      "inputs": [
        {
          "internalType": "address",
          "name": "owner",
          "type": "address"
        }
      ],
      "name": "balanceOf",
      "outputs": [
        {
          "internalType": "uint256",
          "name": "",
          "type": "uint256"
        }
      ],
      "stateMutability": "view",
      "type": "function"
    },
    {
      "inputs": [],
      "name": "baseTokenURI",
      "outputs": [
        {
          "internalType": "string",
          "name": "",
          "type": "string"
        }
      ],
      "stateMutability": "view",
      "type": "function"
    },
    {
      "inputs": [
        {
          "internalType": "uint256",
          "name": "tokenId",
          "type": "uint256"
        }
      ],
      "name": "getApproved",
      "outputs": [
        {
          "internalType": "address",
          "name": "",
          "type": "address"
        }
      ],
      "stateMutability": "view",
      "type": "function"
    },
    {
      "inputs": [],
      "name": "getNumberOfMinted",
      "outputs": [
        {
          "internalType": "uint256",
          "name": "",
          "type": "uint256"
        }
      ],
      "stateMutability": "view",
      "type": "function"
    },
    {
      "inputs": [
        {
          "internalType": "address",
          "name": "owner",
          "type": "address"
        },
        {
          "internalType": "address",
          "name": "operator",
          "type": "address"
        }
      ],
      "name": "isApprovedForAll",
      "outputs": [
        {
          "internalType": "bool",
          "name": "",
          "type": "bool"
        }
      ],
      "stateMutability": "view",
      "type": "function"
    },
    {
      "inputs": [
        {
          "internalType": "uint256",
          "name": "_count",
          "type": "uint256"
        }
      ],
      "name": "mintNFTs",
      "outputs": [],
      "stateMutability": "payable",
      "type": "function"
    },
    {
      "inputs": [],
      "name": "name",
      "outputs": [
        {
          "internalType": "string",
          "name": "",
          "type": "string"
        }
      ],
      "stateMutability": "view",
      "type": "function"
    },
    {
      "inputs": [],
      "name": "owner",
      "outputs": [
        {
          "internalType": "address",
          "name": "",
          "type": "address"
        }
      ],
      "stateMutability": "view",
      "type": "function"
    },
    {
      "inputs": [
        {
          "internalType": "uint256",
          "name": "tokenId",
          "type": "uint256"
        }
      ],
      "name": "ownerOf",
      "outputs": [
        {
          "internalType": "address",
          "name": "",
          "type": "address"
        }
      ],
      "stateMutability": "view",
      "type": "function"
    },
    {
      "inputs": [],
      "name": "renounceOwnership",
      "outputs": [],
      "stateMutability": "nonpayable",
      "type": "function"
    },
    {
      "inputs": [],
      "name": "reserveNFTs",
      "outputs": [],
      "stateMutability": "nonpayable",
      "type": "function"
    },
    {
      "inputs": [
        {
          "internalType": "address",
          "name": "from",
          "type": "address"
        },
        {
          "internalType": "address",
          "name": "to",
          "type": "address"
        },
        {
          "internalType": "uint256",
          "name": "tokenId",
          "type": "uint256"
        }
      ],
      "name": "safeTransferFrom",
      "outputs": [],
      "stateMutability": "nonpayable",
      "type": "function"
    },
    {
      "inputs": [
        {
          "internalType": "address",
          "name": "from",
          "type": "address"
        },
        {
          "internalType": "address",
          "name": "to",
          "type": "address"
        },
        {
          "internalType": "uint256",
          "name": "tokenId",
          "type": "uint256"
        },
        {
          "internalType": "bytes",
          "name": "_data",
          "type": "bytes"
        }
      ],
      "name": "safeTransferFrom",
      "outputs": [],
      "stateMutability": "nonpayable",
      "type": "function"
    },
    {
      "inputs": [
        {
          "internalType": "address",
          "name": "operator",
          "type": "address"
        },
        {
          "internalType": "bool",
          "name": "approved",
          "type": "bool"
        }
      ],
      "name": "setApprovalForAll",
      "outputs": [],
      "stateMutability": "nonpayable",
      "type": "function"
    },
    {
      "inputs": [
        {
          "internalType": "string",
          "name": "_baseTokenURI",
          "type": "string"
        }
      ],
      "name": "setBaseURI",
      "outputs": [],
      "stateMutability": "nonpayable",
      "type": "function"
    },
    {
      "inputs": [
        {
          "internalType": "bytes4",
          "name": "interfaceId",
          "type": "bytes4"
        }
      ],
      "name": "supportsInterface",
      "outputs": [
        {
          "internalType": "bool",
          "name": "",
          "type": "bool"
        }
      ],
      "stateMutability": "view",
      "type": "function"
    },
    {
      "inputs": [],
      "name": "symbol",
      "outputs": [
        {
          "internalType": "string",
          "name": "",
          "type": "string"
        }
      ],
      "stateMutability": "view",
      "type": "function"
    },
    {
      "inputs": [
        {
          "internalType": "uint256",
          "name": "index",
          "type": "uint256"
        }
      ],
      "name": "tokenByIndex",
      "outputs": [
        {
          "internalType": "uint256",
          "name": "",
          "type": "uint256"
        }
      ],
      "stateMutability": "view",
      "type": "function"
    },
    {
      "inputs": [
        {
          "internalType": "address",
          "name": "owner",
          "type": "address"
        },
        {
          "internalType": "uint256",
          "name": "index",
          "type": "uint256"
        }
      ],
      "name": "tokenOfOwnerByIndex",
      "outputs": [
        {
          "internalType": "uint256",
          "name": "",
          "type": "uint256"
        }
      ],
      "stateMutability": "view",
      "type": "function"
    },
    {
      "inputs": [
        {
          "internalType": "uint256",
          "name": "tokenId",
          "type": "uint256"
        }
      ],
      "name": "tokenURI",
      "outputs": [
        {
          "internalType": "string",
          "name": "",
          "type": "string"
        }
      ],
      "stateMutability": "view",
      "type": "function"
    },
    {
      "inputs": [
        {
          "internalType": "address",
          "name": "_owner",
          "type": "address"
        }
      ],
      "name": "tokensOfOwner",
      "outputs": [
        {
          "internalType": "uint256[]",
          "name": "",
          "type": "uint256[]"
        }
      ],
      "stateMutability": "view",
      "type": "function"
    },
    {
      "inputs": [],
      "name": "totalSupply",
      "outputs": [
        {
          "internalType": "uint256",
          "name": "",
          "type": "uint256"
        }
      ],
      "stateMutability": "view",
      "type": "function"
    },
    {
      "inputs": [
        {
          "internalType": "address",
          "name": "from",
          "type": "address"
        },
        {
          "internalType": "address",
          "name": "to",
          "type": "address"
        },
        {
          "internalType": "uint256",
          "name": "tokenId",
          "type": "uint256"
        }
      ],
      "name": "transferFrom",
      "outputs": [],
      "stateMutability": "nonpayable",
      "type": "function"
    },
    {
      "inputs": [
        {
          "internalType": "address",
          "name": "newOwner",
          "type": "address"
        }
      ],
      "name": "transferOwnership",
      "outputs": [],
      "stateMutability": "nonpayable",
      "type": "function"
    },
    {
      "inputs": [],
      "name": "withdraw",
      "outputs": [],
      "stateMutability": "payable",
      "type": "function"
    }
  ],
  "bytecode": "0x60806040523480156200001157600080fd5b50604051620048d4380380620048d48339818101604052810190620000379190620003d4565b6040518060400160405280600b81526020017f5775736368656c6b6f70660000000000000000000000000000000000000000008152506040518060400160405280600281526020017f574b0000000000000000000000000000000000000000000000000000000000008152508160009080519060200190620000bb929190620002b2565b508060019080519060200190620000d4929190620002b2565b505050620000f7620000eb6200010f60201b60201c565b6200011760201b60201c565b6200010881620001dd60201b60201c565b506200060c565b600033905090565b6000600a60009054906101000a900473ffffffffffffffffffffffffffffffffffffffff16905081600a60006101000a81548173ffffffffffffffffffffffffffffffffffffffff021916908373ffffffffffffffffffffffffffffffffffffffff1602179055508173ffffffffffffffffffffffffffffffffffffffff168173ffffffffffffffffffffffffffffffffffffffff167f8be0079c531659141344cd1fd0a4f28419497f9722a3daafe3b4186f6b6457e060405160405180910390a35050565b620001ed6200010f60201b60201c565b73ffffffffffffffffffffffffffffffffffffffff16620002136200028860201b60201c565b73ffffffffffffffffffffffffffffffffffffffff16146200026c576040517f08c379a0000000000000000000000000000000000000000000000000000000008152600401620002639062000440565b60405180910390fd5b80600c908051906020019062000284929190620002b2565b5050565b6000600a60009054906101000a900473ffffffffffffffffffffffffffffffffffffffff16905090565b828054620002c09062000508565b90600052602060002090601f016020900481019282620002e4576000855562000330565b82601f10620002ff57805160ff191683800117855562000330565b8280016001018555821562000330579182015b828111156200032f57825182559160200191906001019062000312565b5b5090506200033f919062000343565b5090565b5b808211156200035e57600081600090555060010162000344565b5090565b60006200037962000373846200048b565b62000462565b9050828152602081018484840111156200039257600080fd5b6200039f848285620004d2565b509392505050565b600082601f830112620003b957600080fd5b8151620003cb84826020860162000362565b91505092915050565b600060208284031215620003e757600080fd5b600082015167ffffffffffffffff8111156200040257600080fd5b6200041084828501620003a7565b91505092915050565b600062000428602083620004c1565b91506200043582620005e3565b602082019050919050565b600060208201905081810360008301526200045b8162000419565b9050919050565b60006200046e62000481565b90506200047c82826200053e565b919050565b6000604051905090565b600067ffffffffffffffff821115620004a957620004a8620005a3565b5b620004b482620005d2565b9050602081019050919050565b600082825260208201905092915050565b60005b83811015620004f2578082015181840152602081019050620004d5565b8381111562000502576000848401525b50505050565b600060028204905060018216806200052157607f821691505b6020821081141562000538576200053762000574565b5b50919050565b6200054982620005d2565b810181811067ffffffffffffffff821117156200056b576200056a620005a3565b5b80604052505050565b7f4e487b7100000000000000000000000000000000000000000000000000000000600052602260045260246000fd5b7f4e487b7100000000000000000000000000000000000000000000000000000000600052604160045260246000fd5b6000601f19601f8301169050919050565b7f4f776e61626c653a2063616c6c6572206973206e6f7420746865206f776e6572600082015250565b6142b8806200061c6000396000f3fe6080604052600436106101c25760003560e01c80634f6ccce7116100f75780638da5cb5b11610095578063c87b56dd11610064578063c87b56dd14610614578063d547cfb714610651578063e985e9c51461067c578063f2fde38b146106b9576101c2565b80638da5cb5b1461056c57806395d89b4114610597578063a22cb465146105c2578063b88d4fde146105eb576101c2565b806370a08231116100d157806370a08231146104b0578063715018a6146104ed5780638462151c146105045780638d859f3e14610541576101c2565b80634f6ccce71461040d57806355f804b31461044a5780636352211e14610473576101c2565b806323b872dd116101645780633b4b13811161013e5780633b4b1381146103935780633ccfd60b146103af578063424294e4146103b957806342842e0e146103e4576101c2565b806323b872dd146103025780632f745c591461032b57806332cb6b0c14610368576101c2565b8063095ea7b3116101a0578063095ea7b31461026c57806309d42b3014610295578063144100c7146102c057806318160ddd146102d7576101c2565b806301ffc9a7146101c757806306fdde0314610204578063081812fc1461022f575b600080fd5b3480156101d357600080fd5b506101ee60048036038101906101e99190612dd2565b6106e2565b6040516101fb9190613410565b60405180910390f35b34801561021057600080fd5b5061021961075c565b604051610226919061342b565b60405180910390f35b34801561023b57600080fd5b5061025660048036038101906102519190612e65565b6107ee565b6040516102639190613387565b60405180910390f35b34801561027857600080fd5b50610293600480360381019061028e9190612d96565b610873565b005b3480156102a157600080fd5b506102aa61098b565b6040516102b7919061374d565b60405180910390f35b3480156102cc57600080fd5b506102d5610990565b005b3480156102e357600080fd5b506102ec610a9b565b6040516102f9919061374d565b60405180910390f35b34801561030e57600080fd5b5061032960048036038101906103249190612c90565b610aa8565b005b34801561033757600080fd5b50610352600480360381019061034d9190612d96565b610b08565b60405161035f919061374d565b60405180910390f35b34801561037457600080fd5b5061037d610bad565b60405161038a919061374d565b60405180910390f35b6103ad60048036038101906103a89190612e65565b610bb2565b005b6103b7610ced565b005b3480156103c557600080fd5b506103ce610e61565b6040516103db919061374d565b60405180910390f35b3480156103f057600080fd5b5061040b60048036038101906104069190612c90565b610e72565b005b34801561041957600080fd5b50610434600480360381019061042f9190612e65565b610e92565b604051610441919061374d565b60405180910390f35b34801561045657600080fd5b50610471600480360381019061046c9190612e24565b610f29565b005b34801561047f57600080fd5b5061049a60048036038101906104959190612e65565b610fbf565b6040516104a79190613387565b60405180910390f35b3480156104bc57600080fd5b506104d760048036038101906104d29190612c2b565b611071565b6040516104e4919061374d565b60405180910390f35b3480156104f957600080fd5b50610502611129565b005b34801561051057600080fd5b5061052b60048036038101906105269190612c2b565b6111b1565b60405161053891906133ee565b60405180910390f35b34801561054d57600080fd5b506105566112ab565b604051610563919061374d565b60405180910390f35b34801561057857600080fd5b506105816112b6565b60405161058e9190613387565b60405180910390f35b3480156105a357600080fd5b506105ac6112e0565b6040516105b9919061342b565b60405180910390f35b3480156105ce57600080fd5b506105e960048036038101906105e49190612d5a565b611372565b005b3480156105f757600080fd5b50610612600480360381019061060d9190612cdf565b611388565b005b34801561062057600080fd5b5061063b60048036038101906106369190612e65565b6113ea565b604051610648919061342b565b60405180910390f35b34801561065d57600080fd5b50610666611491565b604051610673919061342b565b60405180910390f35b34801561068857600080fd5b506106a3600480360381019061069e9190612c54565b61151f565b6040516106b09190613410565b60405180910390f35b3480156106c557600080fd5b506106e060048036038101906106db9190612c2b565b6115b3565b005b60007f780e9d63000000000000000000000000000000000000000000000000000000007bffffffffffffffffffffffffffffffffffffffffffffffffffffffff1916827bffffffffffffffffffffffffffffffffffffffffffffffffffffffff191614806107555750610754826116ab565b5b9050919050565b60606000805461076b90613a41565b80601f016020809104026020016040519081016040528092919081815260200182805461079790613a41565b80156107e45780601f106107b9576101008083540402835291602001916107e4565b820191906000526020600020905b8154815290600101906020018083116107c757829003601f168201915b5050505050905090565b60006107f98261178d565b610838576040517f08c379a000000000000000000000000000000000000000000000000000000000815260040161082f9061366d565b60405180910390fd5b6004600083815260200190815260200160002060009054906101000a900473ffffffffffffffffffffffffffffffffffffffff169050919050565b600061087e82610fbf565b90508073ffffffffffffffffffffffffffffffffffffffff168373ffffffffffffffffffffffffffffffffffffffff1614156108ef576040517f08c379a00000000000000000000000000000000000000000000000000000000081526004016108e6906136cd565b60405180910390fd5b8073ffffffffffffffffffffffffffffffffffffffff1661090e6117f9565b73ffffffffffffffffffffffffffffffffffffffff16148061093d575061093c816109376117f9565b61151f565b5b61097c576040517f08c379a0000000000000000000000000000000000000000000000000000000008152600401610973906135ad565b60405180910390fd5b6109868383611801565b505050565b600581565b6109986117f9565b73ffffffffffffffffffffffffffffffffffffffff166109b66112b6565b73ffffffffffffffffffffffffffffffffffffffff1614610a0c576040517f08c379a0000000000000000000000000000000000000000000000000000000008152600401610a039061368d565b60405180910390fd5b6000610a18600b6118ba565b90506064610a30600a836118c890919063ffffffff16565b10610a70576040517f08c379a0000000000000000000000000000000000000000000000000000000008152600401610a679061360d565b60405180910390fd5b60005b600a811015610a9757610a846118de565b8080610a8f90613aa4565b915050610a73565b5050565b6000600880549050905090565b610ab9610ab36117f9565b82611903565b610af8576040517f08c379a0000000000000000000000000000000000000000000000000000000008152600401610aef9061370d565b60405180910390fd5b610b038383836119e1565b505050565b6000610b1383611071565b8210610b54576040517f08c379a0000000000000000000000000000000000000000000000000000000008152600401610b4b9061346d565b60405180910390fd5b600660008473ffffffffffffffffffffffffffffffffffffffff1673ffffffffffffffffffffffffffffffffffffffff168152602001908152602001600020600083815260200190815260200160002054905092915050565b606481565b6000610bbe600b6118ba565b90506064610bd583836118c890919063ffffffff16565b1115610c16576040517f08c379a0000000000000000000000000000000000000000000000000000000008152600401610c0d9061344d565b60405180910390fd5b600082118015610c27575060058211155b610c66576040517f08c379a0000000000000000000000000000000000000000000000000000000008152600401610c5d9061356d565b60405180910390fd5b610c8082668e1bc9bf040000611c4890919063ffffffff16565b341015610cc2576040517f08c379a0000000000000000000000000000000000000000000000000000000008152600401610cb99061354d565b60405180910390fd5b60005b82811015610ce857610cd56118de565b8080610ce090613aa4565b915050610cc5565b505050565b610cf56117f9565b73ffffffffffffffffffffffffffffffffffffffff16610d136112b6565b73ffffffffffffffffffffffffffffffffffffffff1614610d69576040517f08c379a0000000000000000000000000000000000000000000000000000000008152600401610d609061368d565b60405180910390fd5b600047905060008111610db1576040517f08c379a0000000000000000000000000000000000000000000000000000000008152600401610da89061364d565b60405180910390fd5b60003373ffffffffffffffffffffffffffffffffffffffff1682604051610dd790613372565b60006040518083038185875af1925050503d8060008114610e14576040519150601f19603f3d011682016040523d82523d6000602084013e610e19565b606091505b5050905080610e5d576040517f08c379a0000000000000000000000000000000000000000000000000000000008152600401610e54906136ed565b60405180910390fd5b5050565b6000610e6d600b6118ba565b905090565b610e8d83838360405180602001604052806000815250611388565b505050565b6000610e9c610a9b565b8210610edd576040517f08c379a0000000000000000000000000000000000000000000000000000000008152600401610ed49061372d565b60405180910390fd5b60088281548110610f17577f4e487b7100000000000000000000000000000000000000000000000000000000600052603260045260246000fd5b90600052602060002001549050919050565b610f316117f9565b73ffffffffffffffffffffffffffffffffffffffff16610f4f6112b6565b73ffffffffffffffffffffffffffffffffffffffff1614610fa5576040517f08c379a0000000000000000000000000000000000000000000000000000000008152600401610f9c9061368d565b60405180910390fd5b80600c9080519060200190610fbb929190612a4f565b5050565b6000806002600084815260200190815260200160002060009054906101000a900473ffffffffffffffffffffffffffffffffffffffff169050600073ffffffffffffffffffffffffffffffffffffffff168173ffffffffffffffffffffffffffffffffffffffff161415611068576040517f08c379a000000000000000000000000000000000000000000000000000000000815260040161105f906135ed565b60405180910390fd5b80915050919050565b60008073ffffffffffffffffffffffffffffffffffffffff168273ffffffffffffffffffffffffffffffffffffffff1614156110e2576040517f08c379a00000000000000000000000000000000000000000000000000000000081526004016110d9906135cd565b60405180910390fd5b600360008373ffffffffffffffffffffffffffffffffffffffff1673ffffffffffffffffffffffffffffffffffffffff168152602001908152602001600020549050919050565b6111316117f9565b73ffffffffffffffffffffffffffffffffffffffff1661114f6112b6565b73ffffffffffffffffffffffffffffffffffffffff16146111a5576040517f08c379a000000000000000000000000000000000000000000000000000000000815260040161119c9061368d565b60405180910390fd5b6111af6000611c5e565b565b606060006111be83611071565b905060008167ffffffffffffffff811115611202577f4e487b7100000000000000000000000000000000000000000000000000000000600052604160045260246000fd5b6040519080825280602002602001820160405280156112305781602001602082028036833780820191505090505b50905060005b828110156112a0576112488582610b08565b828281518110611281577f4e487b7100000000000000000000000000000000000000000000000000000000600052603260045260246000fd5b602002602001018181525050808061129890613aa4565b915050611236565b508092505050919050565b668e1bc9bf04000081565b6000600a60009054906101000a900473ffffffffffffffffffffffffffffffffffffffff16905090565b6060600180546112ef90613a41565b80601f016020809104026020016040519081016040528092919081815260200182805461131b90613a41565b80156113685780601f1061133d57610100808354040283529160200191611368565b820191906000526020600020905b81548152906001019060200180831161134b57829003601f168201915b5050505050905090565b61138461137d6117f9565b8383611d24565b5050565b6113996113936117f9565b83611903565b6113d8576040517f08c379a00000000000000000000000000000000000000000000000000000000081526004016113cf9061370d565b60405180910390fd5b6113e484848484611e91565b50505050565b60606113f58261178d565b611434576040517f08c379a000000000000000000000000000000000000000000000000000000000815260040161142b906136ad565b60405180910390fd5b600061143e611eed565b9050600081511161145e5760405180602001604052806000815250611489565b8061146884611f7f565b60405160200161147992919061334e565b6040516020818303038152906040525b915050919050565b600c805461149e90613a41565b80601f01602080910402602001604051908101604052809291908181526020018280546114ca90613a41565b80156115175780601f106114ec57610100808354040283529160200191611517565b820191906000526020600020905b8154815290600101906020018083116114fa57829003601f168201915b505050505081565b6000600560008473ffffffffffffffffffffffffffffffffffffffff1673ffffffffffffffffffffffffffffffffffffffff16815260200190815260200160002060008373ffffffffffffffffffffffffffffffffffffffff1673ffffffffffffffffffffffffffffffffffffffff16815260200190815260200160002060009054906101000a900460ff16905092915050565b6115bb6117f9565b73ffffffffffffffffffffffffffffffffffffffff166115d96112b6565b73ffffffffffffffffffffffffffffffffffffffff161461162f576040517f08c379a00000000000000000000000000000000000000000000000000000000081526004016116269061368d565b60405180910390fd5b600073ffffffffffffffffffffffffffffffffffffffff168173ffffffffffffffffffffffffffffffffffffffff16141561169f576040517f08c379a0000000000000000000000000000000000000000000000000000000008152600401611696906134ad565b60405180910390fd5b6116a881611c5e565b50565b60007f80ac58cd000000000000000000000000000000000000000000000000000000007bffffffffffffffffffffffffffffffffffffffffffffffffffffffff1916827bffffffffffffffffffffffffffffffffffffffffffffffffffffffff1916148061177657507f5b5e139f000000000000000000000000000000000000000000000000000000007bffffffffffffffffffffffffffffffffffffffffffffffffffffffff1916827bffffffffffffffffffffffffffffffffffffffffffffffffffffffff1916145b8061178657506117858261212c565b5b9050919050565b60008073ffffffffffffffffffffffffffffffffffffffff166002600084815260200190815260200160002060009054906101000a900473ffffffffffffffffffffffffffffffffffffffff1673ffffffffffffffffffffffffffffffffffffffff1614159050919050565b600033905090565b816004600083815260200190815260200160002060006101000a81548173ffffffffffffffffffffffffffffffffffffffff021916908373ffffffffffffffffffffffffffffffffffffffff160217905550808273ffffffffffffffffffffffffffffffffffffffff1661187483610fbf565b73ffffffffffffffffffffffffffffffffffffffff167f8c5be1e5ebec7d5bd14f71427d1e84f3dd0314c0f7b2291e5b200ac8c7c3b92560405160405180910390a45050565b600081600001549050919050565b600081836118d69190613876565b905092915050565b60006118ea600b6118ba565b90506118f63382612196565b611900600b6121b4565b50565b600061190e8261178d565b61194d576040517f08c379a00000000000000000000000000000000000000000000000000000000081526004016119449061358d565b60405180910390fd5b600061195883610fbf565b90508073ffffffffffffffffffffffffffffffffffffffff168473ffffffffffffffffffffffffffffffffffffffff16148061199a5750611999818561151f565b5b806119d857508373ffffffffffffffffffffffffffffffffffffffff166119c0846107ee565b73ffffffffffffffffffffffffffffffffffffffff16145b91505092915050565b8273ffffffffffffffffffffffffffffffffffffffff16611a0182610fbf565b73ffffffffffffffffffffffffffffffffffffffff1614611a57576040517f08c379a0000000000000000000000000000000000000000000000000000000008152600401611a4e906134cd565b60405180910390fd5b600073ffffffffffffffffffffffffffffffffffffffff168273ffffffffffffffffffffffffffffffffffffffff161415611ac7576040517f08c379a0000000000000000000000000000000000000000000000000000000008152600401611abe9061350d565b60405180910390fd5b611ad28383836121ca565b611add600082611801565b6001600360008573ffffffffffffffffffffffffffffffffffffffff1673ffffffffffffffffffffffffffffffffffffffff1681526020019081526020016000206000828254611b2d9190613957565b925050819055506001600360008473ffffffffffffffffffffffffffffffffffffffff1673ffffffffffffffffffffffffffffffffffffffff1681526020019081526020016000206000828254611b849190613876565b92505081905550816002600083815260200190815260200160002060006101000a81548173ffffffffffffffffffffffffffffffffffffffff021916908373ffffffffffffffffffffffffffffffffffffffff160217905550808273ffffffffffffffffffffffffffffffffffffffff168473ffffffffffffffffffffffffffffffffffffffff167fddf252ad1be2c89b69c2b068fc378daa952ba7f163c4a11628f55a4df523b3ef60405160405180910390a4611c438383836122de565b505050565b60008183611c5691906138fd565b905092915050565b6000600a60009054906101000a900473ffffffffffffffffffffffffffffffffffffffff16905081600a60006101000a81548173ffffffffffffffffffffffffffffffffffffffff021916908373ffffffffffffffffffffffffffffffffffffffff1602179055508173ffffffffffffffffffffffffffffffffffffffff168173ffffffffffffffffffffffffffffffffffffffff167f8be0079c531659141344cd1fd0a4f28419497f9722a3daafe3b4186f6b6457e060405160405180910390a35050565b8173ffffffffffffffffffffffffffffffffffffffff168373ffffffffffffffffffffffffffffffffffffffff161415611d93576040517f08c379a0000000000000000000000000000000000000000000000000000000008152600401611d8a9061352d565b60405180910390fd5b80600560008573ffffffffffffffffffffffffffffffffffffffff1673ffffffffffffffffffffffffffffffffffffffff16815260200190815260200160002060008473ffffffffffffffffffffffffffffffffffffffff1673ffffffffffffffffffffffffffffffffffffffff16815260200190815260200160002060006101000a81548160ff0219169083151502179055508173ffffffffffffffffffffffffffffffffffffffff168373ffffffffffffffffffffffffffffffffffffffff167f17307eab39ab6107e8899845ad3d59bd9653f200f220920489ca2b5937696c3183604051611e849190613410565b60405180910390a3505050565b611e9c8484846119e1565b611ea8848484846122e3565b611ee7576040517f08c379a0000000000000000000000000000000000000000000000000000000008152600401611ede9061348d565b60405180910390fd5b50505050565b6060600c8054611efc90613a41565b80601f0160208091040260200160405190810160405280929190818152602001828054611f2890613a41565b8015611f755780601f10611f4a57610100808354040283529160200191611f75565b820191906000526020600020905b815481529060010190602001808311611f5857829003601f168201915b5050505050905090565b60606000821415611fc7576040518060400160405280600181526020017f30000000000000000000000000000000000000000000000000000000000000008152509050612127565b600082905060005b60008214611ff9578080611fe290613aa4565b915050600a82611ff291906138cc565b9150611fcf565b60008167ffffffffffffffff81111561203b577f4e487b7100000000000000000000000000000000000000000000000000000000600052604160045260246000fd5b6040519080825280601f01601f19166020018201604052801561206d5781602001600182028036833780820191505090505b5090505b60008514612120576001826120869190613957565b9150600a856120959190613aed565b60306120a19190613876565b60f81b8183815181106120dd577f4e487b7100000000000000000000000000000000000000000000000000000000600052603260045260246000fd5b60200101907effffffffffffffffffffffffffffffffffffffffffffffffffffffffffffff1916908160001a905350600a8561211991906138cc565b9450612071565b8093505050505b919050565b60007f01ffc9a7000000000000000000000000000000000000000000000000000000007bffffffffffffffffffffffffffffffffffffffffffffffffffffffff1916827bffffffffffffffffffffffffffffffffffffffffffffffffffffffff1916149050919050565b6121b082826040518060200160405280600081525061247a565b5050565b6001816000016000828254019250508190555050565b6121d58383836124d5565b600073ffffffffffffffffffffffffffffffffffffffff168373ffffffffffffffffffffffffffffffffffffffff16141561221857612213816124da565b612257565b8173ffffffffffffffffffffffffffffffffffffffff168373ffffffffffffffffffffffffffffffffffffffff1614612256576122558382612523565b5b5b600073ffffffffffffffffffffffffffffffffffffffff168273ffffffffffffffffffffffffffffffffffffffff16141561229a5761229581612690565b6122d9565b8273ffffffffffffffffffffffffffffffffffffffff168273ffffffffffffffffffffffffffffffffffffffff16146122d8576122d782826127d3565b5b5b505050565b505050565b60006123048473ffffffffffffffffffffffffffffffffffffffff16612852565b1561246d578373ffffffffffffffffffffffffffffffffffffffff1663150b7a0261232d6117f9565b8786866040518563ffffffff1660e01b815260040161234f94939291906133a2565b602060405180830381600087803b15801561236957600080fd5b505af192505050801561239a57506040513d601f19601f820116820180604052508101906123979190612dfb565b60015b61241d573d80600081146123ca576040519150601f19603f3d011682016040523d82523d6000602084013e6123cf565b606091505b50600081511415612415576040517f08c379a000000000000000000000000000000000000000000000000000000000815260040161240c9061348d565b60405180910390fd5b805181602001fd5b63150b7a0260e01b7bffffffffffffffffffffffffffffffffffffffffffffffffffffffff1916817bffffffffffffffffffffffffffffffffffffffffffffffffffffffff191614915050612472565b600190505b949350505050565b6124848383612875565b61249160008484846122e3565b6124d0576040517f08c379a00000000000000000000000000000000000000000000000000000000081526004016124c79061348d565b60405180910390fd5b505050565b505050565b6008805490506009600083815260200190815260200160002081905550600881908060018154018082558091505060019003906000526020600020016000909190919091505550565b6000600161253084611071565b61253a9190613957565b905060006007600084815260200190815260200160002054905081811461261f576000600660008673ffffffffffffffffffffffffffffffffffffffff1673ffffffffffffffffffffffffffffffffffffffff168152602001908152602001600020600084815260200190815260200160002054905080600660008773ffffffffffffffffffffffffffffffffffffffff1673ffffffffffffffffffffffffffffffffffffffff168152602001908152602001600020600084815260200190815260200160002081905550816007600083815260200190815260200160002081905550505b6007600084815260200190815260200160002060009055600660008573ffffffffffffffffffffffffffffffffffffffff1673ffffffffffffffffffffffffffffffffffffffff16815260200190815260200160002060008381526020019081526020016000206000905550505050565b600060016008805490506126a49190613957565b90506000600960008481526020019081526020016000205490506000600883815481106126fa577f4e487b7100000000000000000000000000000000000000000000000000000000600052603260045260246000fd5b906000526020600020015490508060088381548110612742577f4e487b7100000000000000000000000000000000000000000000000000000000600052603260045260246000fd5b9060005260206000200181905550816009600083815260200190815260200160002081905550600960008581526020019081526020016000206000905560088054806127b7577f4e487b7100000000000000000000000000000000000000000000000000000000600052603160045260246000fd5b6001900381819060005260206000200160009055905550505050565b60006127de83611071565b905081600660008573ffffffffffffffffffffffffffffffffffffffff1673ffffffffffffffffffffffffffffffffffffffff168152602001908152602001600020600083815260200190815260200160002081905550806007600084815260200190815260200160002081905550505050565b6000808273ffffffffffffffffffffffffffffffffffffffff163b119050919050565b600073ffffffffffffffffffffffffffffffffffffffff168273ffffffffffffffffffffffffffffffffffffffff1614156128e5576040517f08c379a00000000000000000000000000000000000000000000000000000000081526004016128dc9061362d565b60405180910390fd5b6128ee8161178d565b1561292e576040517f08c379a0000000000000000000000000000000000000000000000000000000008152600401612925906134ed565b60405180910390fd5b61293a600083836121ca565b6001600360008473ffffffffffffffffffffffffffffffffffffffff1673ffffffffffffffffffffffffffffffffffffffff168152602001908152602001600020600082825461298a9190613876565b92505081905550816002600083815260200190815260200160002060006101000a81548173ffffffffffffffffffffffffffffffffffffffff021916908373ffffffffffffffffffffffffffffffffffffffff160217905550808273ffffffffffffffffffffffffffffffffffffffff16600073ffffffffffffffffffffffffffffffffffffffff167fddf252ad1be2c89b69c2b068fc378daa952ba7f163c4a11628f55a4df523b3ef60405160405180910390a4612a4b600083836122de565b5050565b828054612a5b90613a41565b90600052602060002090601f016020900481019282612a7d5760008555612ac4565b82601f10612a9657805160ff1916838001178555612ac4565b82800160010185558215612ac4579182015b82811115612ac3578251825591602001919060010190612aa8565b5b509050612ad19190612ad5565b5090565b5b80821115612aee576000816000905550600101612ad6565b5090565b6000612b05612b008461378d565b613768565b905082815260208101848484011115612b1d57600080fd5b612b288482856139ff565b509392505050565b6000612b43612b3e846137be565b613768565b905082815260208101848484011115612b5b57600080fd5b612b668482856139ff565b509392505050565b600081359050612b7d81614226565b92915050565b600081359050612b928161423d565b92915050565b600081359050612ba781614254565b92915050565b600081519050612bbc81614254565b92915050565b600082601f830112612bd357600080fd5b8135612be3848260208601612af2565b91505092915050565b600082601f830112612bfd57600080fd5b8135612c0d848260208601612b30565b91505092915050565b600081359050612c258161426b565b92915050565b600060208284031215612c3d57600080fd5b6000612c4b84828501612b6e565b91505092915050565b60008060408385031215612c6757600080fd5b6000612c7585828601612b6e565b9250506020612c8685828601612b6e565b9150509250929050565b600080600060608486031215612ca557600080fd5b6000612cb386828701612b6e565b9350506020612cc486828701612b6e565b9250506040612cd586828701612c16565b9150509250925092565b60008060008060808587031215612cf557600080fd5b6000612d0387828801612b6e565b9450506020612d1487828801612b6e565b9350506040612d2587828801612c16565b925050606085013567ffffffffffffffff811115612d4257600080fd5b612d4e87828801612bc2565b91505092959194509250565b60008060408385031215612d6d57600080fd5b6000612d7b85828601612b6e565b9250506020612d8c85828601612b83565b9150509250929050565b60008060408385031215612da957600080fd5b6000612db785828601612b6e565b9250506020612dc885828601612c16565b9150509250929050565b600060208284031215612de457600080fd5b6000612df284828501612b98565b91505092915050565b600060208284031215612e0d57600080fd5b6000612e1b84828501612bad565b91505092915050565b600060208284031215612e3657600080fd5b600082013567ffffffffffffffff811115612e5057600080fd5b612e5c84828501612bec565b91505092915050565b600060208284031215612e7757600080fd5b6000612e8584828501612c16565b91505092915050565b6000612e9a8383613330565b60208301905092915050565b612eaf8161398b565b82525050565b6000612ec0826137ff565b612eca818561382d565b9350612ed5836137ef565b8060005b83811015612f06578151612eed8882612e8e565b9750612ef883613820565b925050600181019050612ed9565b5085935050505092915050565b612f1c8161399d565b82525050565b6000612f2d8261380a565b612f37818561383e565b9350612f47818560208601613a0e565b612f5081613bda565b840191505092915050565b6000612f6682613815565b612f70818561385a565b9350612f80818560208601613a0e565b612f8981613bda565b840191505092915050565b6000612f9f82613815565b612fa9818561386b565b9350612fb9818560208601613a0e565b80840191505092915050565b6000612fd260108361385a565b9150612fdd82613beb565b602082019050919050565b6000612ff5602b8361385a565b915061300082613c14565b604082019050919050565b600061301860328361385a565b915061302382613c63565b604082019050919050565b600061303b60268361385a565b915061304682613cb2565b604082019050919050565b600061305e60258361385a565b915061306982613d01565b604082019050919050565b6000613081601c8361385a565b915061308c82613d50565b602082019050919050565b60006130a460248361385a565b91506130af82613d79565b604082019050919050565b60006130c760198361385a565b91506130d282613dc8565b602082019050919050565b60006130ea60228361385a565b91506130f582613df1565b604082019050919050565b600061310d60258361385a565b915061311882613e40565b604082019050919050565b6000613130602c8361385a565b915061313b82613e8f565b604082019050919050565b600061315360388361385a565b915061315e82613ede565b604082019050919050565b6000613176602a8361385a565b915061318182613f2d565b604082019050919050565b600061319960298361385a565b91506131a482613f7c565b604082019050919050565b60006131bc600f8361385a565b91506131c782613fcb565b602082019050919050565b60006131df60208361385a565b91506131ea82613ff4565b602082019050919050565b600061320260198361385a565b915061320d8261401d565b602082019050919050565b6000613225602c8361385a565b915061323082614046565b604082019050919050565b600061324860208361385a565b915061325382614095565b602082019050919050565b600061326b602f8361385a565b9150613276826140be565b604082019050919050565b600061328e60218361385a565b91506132998261410d565b604082019050919050565b60006132b160008361384f565b91506132bc8261415c565b600082019050919050565b60006132d460108361385a565b91506132df8261415f565b602082019050919050565b60006132f760318361385a565b915061330282614188565b604082019050919050565b600061331a602c8361385a565b9150613325826141d7565b604082019050919050565b613339816139f5565b82525050565b613348816139f5565b82525050565b600061335a8285612f94565b91506133668284612f94565b91508190509392505050565b600061337d826132a4565b9150819050919050565b600060208201905061339c6000830184612ea6565b92915050565b60006080820190506133b76000830187612ea6565b6133c46020830186612ea6565b6133d1604083018561333f565b81810360608301526133e38184612f22565b905095945050505050565b600060208201905081810360008301526134088184612eb5565b905092915050565b60006020820190506134256000830184612f13565b92915050565b600060208201905081810360008301526134458184612f5b565b905092915050565b6000602082019050818103600083015261346681612fc5565b9050919050565b6000602082019050818103600083015261348681612fe8565b9050919050565b600060208201905081810360008301526134a68161300b565b9050919050565b600060208201905081810360008301526134c68161302e565b9050919050565b600060208201905081810360008301526134e681613051565b9050919050565b6000602082019050818103600083015261350681613074565b9050919050565b6000602082019050818103600083015261352681613097565b9050919050565b60006020820190508181036000830152613546816130ba565b9050919050565b60006020820190508181036000830152613566816130dd565b9050919050565b6000602082019050818103600083015261358681613100565b9050919050565b600060208201905081810360008301526135a681613123565b9050919050565b600060208201905081810360008301526135c681613146565b9050919050565b600060208201905081810360008301526135e681613169565b9050919050565b600060208201905081810360008301526136068161318c565b9050919050565b60006020820190508181036000830152613626816131af565b9050919050565b60006020820190508181036000830152613646816131d2565b9050919050565b60006020820190508181036000830152613666816131f5565b9050919050565b6000602082019050818103600083015261368681613218565b9050919050565b600060208201905081810360008301526136a68161323b565b9050919050565b600060208201905081810360008301526136c68161325e565b9050919050565b600060208201905081810360008301526136e681613281565b9050919050565b60006020820190508181036000830152613706816132c7565b9050919050565b60006020820190508181036000830152613726816132ea565b9050919050565b600060208201905081810360008301526137468161330d565b9050919050565b6000602082019050613762600083018461333f565b92915050565b6000613772613783565b905061377e8282613a73565b919050565b6000604051905090565b600067ffffffffffffffff8211156137a8576137a7613bab565b5b6137b182613bda565b9050602081019050919050565b600067ffffffffffffffff8211156137d9576137d8613bab565b5b6137e282613bda565b9050602081019050919050565b6000819050602082019050919050565b600081519050919050565b600081519050919050565b600081519050919050565b6000602082019050919050565b600082825260208201905092915050565b600082825260208201905092915050565b600081905092915050565b600082825260208201905092915050565b600081905092915050565b6000613881826139f5565b915061388c836139f5565b9250827fffffffffffffffffffffffffffffffffffffffffffffffffffffffffffffffff038211156138c1576138c0613b1e565b5b828201905092915050565b60006138d7826139f5565b91506138e2836139f5565b9250826138f2576138f1613b4d565b5b828204905092915050565b6000613908826139f5565b9150613913836139f5565b9250817fffffffffffffffffffffffffffffffffffffffffffffffffffffffffffffffff048311821515161561394c5761394b613b1e565b5b828202905092915050565b6000613962826139f5565b915061396d836139f5565b9250828210156139805761397f613b1e565b5b828203905092915050565b6000613996826139d5565b9050919050565b60008115159050919050565b60007fffffffff0000000000000000000000000000000000000000000000000000000082169050919050565b600073ffffffffffffffffffffffffffffffffffffffff82169050919050565b6000819050919050565b82818337600083830152505050565b60005b83811015613a2c578082015181840152602081019050613a11565b83811115613a3b576000848401525b50505050565b60006002820490506001821680613a5957607f821691505b60208210811415613a6d57613a6c613b7c565b5b50919050565b613a7c82613bda565b810181811067ffffffffffffffff82111715613a9b57613a9a613bab565b5b80604052505050565b6000613aaf826139f5565b91507fffffffffffffffffffffffffffffffffffffffffffffffffffffffffffffffff821415613ae257613ae1613b1e565b5b600182019050919050565b6000613af8826139f5565b9150613b03836139f5565b925082613b1357613b12613b4d565b5b828206905092915050565b7f4e487b7100000000000000000000000000000000000000000000000000000000600052601160045260246000fd5b7f4e487b7100000000000000000000000000000000000000000000000000000000600052601260045260246000fd5b7f4e487b7100000000000000000000000000000000000000000000000000000000600052602260045260246000fd5b7f4e487b7100000000000000000000000000000000000000000000000000000000600052604160045260246000fd5b6000601f19601f8301169050919050565b7f4e6f7420656e6f756768204e4654732100000000000000000000000000000000600082015250565b7f455243373231456e756d657261626c653a206f776e657220696e646578206f7560008201527f74206f6620626f756e6473000000000000000000000000000000000000000000602082015250565b7f4552433732313a207472616e7366657220746f206e6f6e20455243373231526560008201527f63656976657220696d706c656d656e7465720000000000000000000000000000602082015250565b7f4f776e61626c653a206e6577206f776e657220697320746865207a65726f206160008201527f6464726573730000000000000000000000000000000000000000000000000000602082015250565b7f4552433732313a207472616e736665722066726f6d20696e636f72726563742060008201527f6f776e6572000000000000000000000000000000000000000000000000000000602082015250565b7f4552433732313a20746f6b656e20616c7265616479206d696e74656400000000600082015250565b7f4552433732313a207472616e7366657220746f20746865207a65726f2061646460008201527f7265737300000000000000000000000000000000000000000000000000000000602082015250565b7f4552433732313a20617070726f766520746f2063616c6c657200000000000000600082015250565b7f4e6f7420656e6f75676820657468657220746f207075726368617365204e465460008201527f732e000000000000000000000000000000000000000000000000000000000000602082015250565b7f43616e6e6f74206d696e7420737065636966696564206e756d626572206f662060008201527f4e4654732e000000000000000000000000000000000000000000000000000000602082015250565b7f4552433732313a206f70657261746f7220717565727920666f72206e6f6e657860008201527f697374656e7420746f6b656e0000000000000000000000000000000000000000602082015250565b7f4552433732313a20617070726f76652063616c6c6572206973206e6f74206f7760008201527f6e6572206e6f7220617070726f76656420666f7220616c6c0000000000000000602082015250565b7f4552433732313a2062616c616e636520717565727920666f7220746865207a6560008201527f726f206164647265737300000000000000000000000000000000000000000000602082015250565b7f4552433732313a206f776e657220717565727920666f72206e6f6e657869737460008201527f656e7420746f6b656e0000000000000000000000000000000000000000000000602082015250565b7f4e6f7420656e6f756768204e4654730000000000000000000000000000000000600082015250565b7f4552433732313a206d696e7420746f20746865207a65726f2061646472657373600082015250565b7f4e6f206574686572206c65667420746f20776974686472617700000000000000600082015250565b7f4552433732313a20617070726f76656420717565727920666f72206e6f6e657860008201527f697374656e7420746f6b656e0000000000000000000000000000000000000000602082015250565b7f4f776e61626c653a2063616c6c6572206973206e6f7420746865206f776e6572600082015250565b7f4552433732314d657461646174613a2055524920717565727920666f72206e6f60008201527f6e6578697374656e7420746f6b656e0000000000000000000000000000000000602082015250565b7f4552433732313a20617070726f76616c20746f2063757272656e74206f776e6560008201527f7200000000000000000000000000000000000000000000000000000000000000602082015250565b50565b7f5472616e73666572206661696c65642e00000000000000000000000000000000600082015250565b7f4552433732313a207472616e736665722063616c6c6572206973206e6f74206f60008201527f776e6572206e6f7220617070726f766564000000000000000000000000000000602082015250565b7f455243373231456e756d657261626c653a20676c6f62616c20696e646578206f60008201527f7574206f6620626f756e64730000000000000000000000000000000000000000602082015250565b61422f8161398b565b811461423a57600080fd5b50565b6142468161399d565b811461425157600080fd5b50565b61425d816139a9565b811461426857600080fd5b50565b614274816139f5565b811461427f57600080fd5b5056fea264697066735822122033a6b6cd160cb74a62a1ce138591e9c5164c3753fb590e0626210ca9b5c51fb964736f6c63430008040033",
  "linkReferences": {},
  "deployedLinkReferences": {}
}